:1009F000537465703D004A554D502D414E442D4A6B
:080A0000554D50002E000000CE
:10094100E4F593F594F591F592F595F59653B1DFAC
:1009510043B220F5B3F5B4F5C9F5CAF5CBF5CCF53D
:04096100E1F5E222B8
:10043300E4F52CF52BF52AF529F530F52FF52EF5F6
:100443002DF534F533F532F531F538F537F536F565
:1004530035F53CF53BF53AF539F53EF53FF5407892
:100463004C7C00FD7BFF7A0A7906FE7F021202A311
:100473007550FF7551097552F0E4F55FF55EF55D52
:10048300F55CF563F562F561F5601209417F647E01
:1004930000120A201209BF7F03120986E4F54E7584
:1004A3004F017BFF7A0979F6FDFF1208EBAB50AAE7
:1004B30051A952AD4FAF4E1208EB754E05754F0162
:1004C300AF5FAE5EAD5DAC5C7B007A007953120723
:1004D300257B007A007953AD4FAF4E1208EB120A19
:1004E30037120A8B7B007A00794C120A4E8F3DC279
:1004F300B5C28CD2A9D2B95389FC438E805389FBF0
:10050300438F01E4F58CF58AD28CD2AF120856D210
:10051300B220B2FD7F1412096A20B2F5759D011253
:10052300096575BCE043972043BC08E4FFEF7007FF
:10053300E5BC5410FF80F653BCE7AFBDEFFEADBE84
:100543007C00E42DFFEC3EFEE48F2C8E2BF52AF588
:10055300297F0AFEFD120970759D0212096575BC9B
:10056300E143972043BC08E4FFEF7007E5BC541058
:10057300FF80F653BCE7AFBDEFFEADBE7C00E42DBC
:10058300FFEC3EFEE48F308E2FF52EF52D7F0AFE15
:10059300FD120970C3E52C9530F53CE52B952FF53D
:1005A3003BE52A952EF53AE529952DF539E4FFFE2D
:1005B300FDFCAB3CAA3BA93AA839D312032F402236
:1005C300AF3CAE3BAD3AAC39EC1201147B667A66B4
:1005D30079E6783F12000E1201528F3C8E3B8D3A22
:1005E3008C39AF3CAE3BAD3AAC39EC3350251203FA
:1005F300218F3C8E3B8D3A8C39EC1201147BCD7AE2
:10060300CC790C784012000E1201528F3C8E3B8D38
:100613003A8C39AF3CAE3BAD3AAC397B007A0079CA
:1006230008120725AF2CAE2BAD2AAC297B007A002C
:100633007913120725AF30AE2FAD2EAC2D7B007A88
:1006430000791E1207257B007A0079131209177BA4
:10065300FF7A0A79041209177B007A00791E1209BE
:10066300177BFF7A0A79041209177B007A0079084D
:100673001209177BFF7A0A7904120917757A18751C
:100683007BAF12085CAE3BAF3C120A207F057E00B5
:10069300120A201208567F1412096A754E05754F07
:1006A30001E5632401F563E43562F562E43561F540
:1006B30061E43560F56085635F85625E85615DF544
:1006C3005CAF5FAE5EAD5DAC5C7B007A00795312CC
:1006D30007257B007A007953AD4FAF4E1208EBAF7D
:1006E30063AE62AD61AC607B007A0079411207258D
:1006F300E4F53FF540AF4074412FF8E6FE744C2F0C
:10070300F8A6060540E5407002053F640B453F70BF
:10071300E47B007A00794C1207DD30B20302051442
:0207230080F85C
:0B09650075BC807F0A7E007D007C00D6
:100970008F678E668D658C64786474FF120347EC14
:060980004D4E4F70F32202
:100A20007D807C04ED1D70011C144C70F7EF1F706D
:060A3000011E144E70EAE5
:010A3600229D
:0A085600757A22757B8FAF7BAE7AB6
:040860008F828E8372
:10086400E4FCFD7BE07A5F7903F8C312032F5003A5
:10087400905FE0C3E5829420E583940050039000E8
:1008840020E42582FFE58334A0FEC3E49582F5824B
:10089400E49583F583C2AFF57C85827D8E788F796C
:0208A400D2AFD1
:0108A600222F
:03000B000209D80F
:1009D800C0E030B509E578F58C85798A8007E57C33
:0809E800F58C857D8AD0E03218
:100A3700759850438E40538EFE53890F758BE07522
:070A47008DFEC2ABD28E222E
:100A8B0075AC1053ACBF438E0475D7E075D6FE43DF
:030A9B008E102298
:080003008F993099FDC299228A
:060917008B648A6589660D
:10091D00120A4EAE07EE601BAB64AA65A966120201
:10092D00C9FF12000374012566F566E43565F565AA
:03093D001E80E237
:010940002294
:0E0725008F678E668D658C648B688A69896A21
:10073300E4F56BF56CEC33501C1203218F678E6666
:100743008D658C64056AE56A7002056914F9742D78
:1007530012030F056CE47B0AFAF9F8AF67AE66ADD6
:1007630065AC641208A7EB2430FFAE6B056B746DA8
:100773002EF8A607AF67AE66AD65AC64E47B0AFAF4
:10078300F9F81208A78F678E668D658C64E4FFFE07
:10079300FDFCAB67AA66A965A864D312032F50B505
:1007A300E56B256CF56CAF6B156BD3EF64809480B0
:1007B300401B746D256BF8E6FFAB68056AE56AAA12
:1007C300697002056914F9EF12030F80D9AB68AAA7
:0907D30069A96AE412030FAF6C7E
:0107DC0022FA
:040AB2007F09DFFEDB
:010AB600221D
:100A0800C2C1D2C275A0FF00D2C4120AB2AFA053AD
:070A18000780EF70F8C2C473
:010A1F0022B4
:100A6300AE07120A08D2C1C2C28EA000D2C4120AB3
:040A7300B2C2C42225
:100A7700AE07120A08C2C1C2C28EA000D2C4120AAF
:040A8700B2C2C42211
:050AB7007F01020A7737
:1009A60053070F530501ED7004AC078004EF244094
:0909B600FC430480AF04020A773F
:10098600EF14600E14600F146010240370117F08BA
:10099600800A7F0C80067F0E80027F0F120A772264
:080AAA001209A6AF03020A6362
:0608EB008B648A6589663A
:1008F100E4F5671209A6AB64AA65A96685678275E6
:1009010083001202E2FF600D120A630567E567C307
:05091100941040E222F9
:0109160022BE
:1009BF007F38120A777F08120A777F01120A777F32
:0909CF0006120A777F0C020A7778
:0607DD008B648A65896649
:1007E300E4F56DFFFE120A4E8F6C7567FDE4F56844
:1007F300E56C2403F569756A01756B21E4FEFF74EA
:10080300672FF8E6626DF5ADE5AC30E1FB53ACFD67
:100813000FBF00010EEF64054E70E4E4FEFFC3EF6B
:10082300956CEE94005020AB64AA65A9668F828E06
:10083300831202E2626DF5ADE5AC30E1FB53ACFD32
:100843000FBF00010E80D7856DADE5AC30E1FB53E2
:02085300ACFDFA
:010855002280
:10000E00EC4D6011E8497017ED33EC3304600DE4EC
:10001E00FCFFFEFD22E933E8330470F80201BE1244
:10002E00018958046009E4CC248150062850090245
:10003E0001C82840030201C5C0E0EB4A7044B980F4
:10004E0006D0E0FB0201B4EF4E701CBD8008EBFF42
:10005E00EAFEE9FD80EBE98DF0A4FEE5F00200F783
:10006E00E9CDF9EAFEEBFFEF89F0A4FCE5F0CE89CD
:10007E00F0A42EFFE435F0CD89F0A42DFEE435F08A
:10008E008067EF4E7005BD80D780C3EF8BF0A4ACB8
:10009E00F0EE8BF0A42CFCE435F0F8EF8AF0A42CF3
:1000AE00E5F038FCE433CB8DF0A42CFCE5F03BF806
:1000BE00EE8AF0A42CFCE5F038F8E433CF89F0A4F6
:1000CE002CFCE5F038CF3400CE89F0A42FFFE5F0FC
:1000DE003EFEE433C98DF0A42EFEE5F039CD8AF054
:1000EE00A42FFFE5F03EFEE43DFD33D0E0FB5007CC
:1000FE000BBB000F0201C8EC2CFCEF33FFEE33FEFE
:06010E00ED33FD0201A02B
:1001140075F020800E75F010800575F0087D007E66
:10012400007F003392D530D503120321EC33401005
:10013400EF33FFEE33FEED33FDEC33FCD5F0ED226F
:0E014400E5F0247EA2D513CC92E7CDCEFF22AB
:10015200EDD2E7CD33EC3392D524814006E4FFFEA5
:10016200FDFC22FCE4CFCECDCC24E0501174FF8004
:10017200EDC3CC13CCCD13CDCE13CECF13CF0470A1
:07018200F030D5DE0203217D
:10018900E9D2E7C933E833F892D5EDD2E7CD33ECBC
:0701990033FC5002B2D52235
:1001A000EC30E7100FBF000C0EBE00080DBD0004C0
:1001B0000BEB6014A2D5EB13FCED92E7FD2274FF6C
:1001C000FCFDFEFF22E480F8A2D574FF13FC7D80C5
:0301D000E480EFD9
:03000000020A9E53
:0C0A9E00787FE4F6D8FD75817D020433FA
:1001D300E709F608DFFA8046E709F208DFFA803E0E
:1001E30088828C83E709F0A3DFFA8032E309F608FB
:1001F300DFFA8078E309F208DFFA807088828C8363
:10020300E309F0A3DFFA806489828A83E0A3F60816
:10021300DFFA805889828A83E0A3F208DFFA804CF0
:1002230080D280FA80C680D4806980F280338010C7
:1002330080A680EA809A80A880DA80E280CA803330
:1002430089828A83ECFAE493A3C8C582C8CCC583A8
:10025300CCF0A3C8C582C8CCC583CCDFE9DEE78078
:100263000D89828A83E493A3F608DFF9ECFAA9F0F7
:10027300EDFB2289828A83ECFAE0A3C8C582C8CC4D
:10028300C583CCF0A3C8C582C8CCC583CCDFEADE66
:10029300E880DB89828A83E493A3F208DFF980CCC8
:1002A30088F0EF60010E4E60C388F0ED2402B404C1
:1002B3000050B9F582EB2402B4040050AF23234568
:0602C30082239002237368
:1002C900BB010689828A83E0225002E722BBFE0233
:0902D900E32289828A83E4932266
:1002E200BB010CE58229F582E5833AF583E02250D1
:1002F20006E92582F8E622BBFE06E92582F8E2221B
:0D030200E58229F582E5833AF583E4932234
:10030F00BB010689828A83F0225002F722BBFE01CD
:02031F00F322C7
:1008A700C2D5E830E70FB2D5E4C39BFBE49AFAE47C
:1008B70099F9E498F8EC30E717B2D51208DD12037E
:1008C700A1E4C39BFBE49AFAE499F9E498F880035E
:1008D7001203A130D50DE4C39FFFE49EFEE49DFD06
:0408E700E49CFC226F
:0E032100C3E49FFFE49EFEE49DFDE49CFC22ED
:10032F00EB9FF5F0EA9E42F0E99D42F0EC6480C845
:06033F0064809845F022E5
:100345007401FF3395E0FEFDFC080808E6CF2FF6A3
:1003550018E6CE3EF618E6CD3DF618E6CC3CF6227C
:100A4E00E4FFFE1202C9600C0FEF70010E09E9708F
:050A5E00F20A80EF2206
:1003650075F008758200EF2FFFEE33FECD33CDCC4F
:1003750033CCC58233C5829BED9AEC99E5829840D2
:100385000CF582EE9BFEED9AFDEC99FC0FD5F0D6AF
:10039500E4CEFBE4CDFAE4CCF9A88222B800C1B9D9
:1003A5000059BA002DEC8BF084CFCECDFCE5F0CB17
:1003B500F97818EF2FFFEE33FEED33FDEC33FCEB50
:1003C50033FB10D703994004EB99FB0FD8E5E4F90B
:1003D500FA227818EF2FFFEE33FEED33FDEC33FCF8
:1003E500C933C910D7059BE99A4007EC9BFCE99AEC
:1003F500F90FD8E0E4C9FAE4CCFB2275F010EF2F31
:10040500FFEE33FEED33FDCC33CCC833C810D70730
:100415009BEC9AE899400AED9BFDEC9AFCE899F86B
:0E0425000FD5F0DAE4CDFBE4CCFAE4C8F922FE
:00000001FF
